:020000040800F2
:1000000000000320BD3E0008552C0008632C0008AA
:10001000692C00086F2C0008752C000800000000F7
:100020000000000000000000000000007B2C000821
:10003000892C000800000000972C0008A52C00085F
:10004000113F0008113F0008113F0008B12C0008C3
:10005000113F0008113F00083F2D00084D2D0008FA
:10006000113F0008113F0008312D0008113F000822
:10007000113F0008113F0008BD2C0008113F000887
:10008000113F0008113F0008113F0008113F000810
:10009000113F0008113F0008113F0008113F000800
:1000A000113F0008113F0008113F0008113F0008F0
:1000B000113F0008113F0008113F0008113F0008E0
:1000C000113F0008113F0008113F0008113F0008D0
:1000D000D12C0008E52C0008113F0008113F000852
:1000E000113F0008113F0008113F0008113F0008B0
:1000F000F92C0008052D0008112D0008113F0008FB
:10010000113F0008113F0008113F0008113F00088F
:10011000113F0008113F0008113F0008113F00087F
:10012000113F0008113F00081D2D0008113F000875
:0C013000113F0008113F0008113F0008BB
:1001400010B5054C237833B9044B13B10448AFF311
:1001500000800123237010BD500200200000000029
:10016000D8D9000808B5034B1BB103490348AFF3C6
:10017000008008BD0000000054020020D8D900080B
:1001800010F8012B11F8013B012A28BF9A42F7D041
:10019000D01A7047000000000000000000000000BE
:1001A00001F0FF01102A2BDB10F0070F08D010F828
:1001B000013B013A8B422DD010F0070F42B3F6D12C
:1001C000F0B441EA012141EA014122F007047FF045
:1001D00000070023F0E80256083C85EA010586EA9C
:1001E000010685FA47F5A3FA87F586FA47F6A5FAD8
:1001F00087F68EB9EED1F0BC01F0FF0102F00702E4
:1002000032B110F8013B013A83EA010313B1F8D18E
:100210000020704701387047002D06BF354603386F
:10022000073815F0010F07D1013015F4807F02BFA8
:10023000013015F4C03F0130F0BC0138704700BFF9
:10024000034613F8012B002AFBD1181A0138704716
:1002500081F0004102E000BF83F0004330B54FEA77
:1002600041044FEA430594EA050F08BF90EA020FE4
:100270001FBF54EA000C55EA020C7FEA645C7FEA77
:10028000655C00F0E2804FEA5454D4EB5555B8BF9A
:100290006D420CDD2C4480EA020281EA030382EA0B
:1002A000000083EA010180EA020281EA0303362D9D
:1002B00088BF30BD11F0004F4FEA01314FF4801C70
:1002C0004CEA113102D0404261EB410113F0004F82
:1002D0004FEA03334CEA133302D0524263EB430339
:1002E00094EA050F00F0A780A4F10104D5F1200ED7
:1002F0000DDB02FA0EFC22FA05F2801841F1000132
:1003000003FA0EF2801843FA05F359410EE0A5F105
:1003100020050EF1200E012A03FA0EFC28BF4CF036
:10032000020C43FA05F3C01851EBE37101F00045EC
:1003300007D54FF0000EDCF1000C7EEB00006EEBF9
:100340000101B1F5801F1BD3B1F5001F0CD3490883
:100350005FEA30004FEA3C0C04F101044FEA4452DA
:1003600012F5800F80F09A80BCF1004F08BF5FEA61
:10037000500C50F1000041EB045141EA050130BD41
:100380005FEA4C0C404141EB0101013C28BFB1F553
:10039000801FE9D291F0000F04BF01460020B1FA9E
:1003A00081F308BF2033A3F10B03B3F120020CDA71
:1003B0000C3208DD02F1140CC2F10C0201FA0CF04F
:1003C00021FA02F10CE002F11402D8BFC2F1200CB4
:1003D00001FA02F120FA0CFCDCBF41EA0C0190406A
:1003E000E41AA2BF01EB0451294330BD6FEA0404B3
:1003F0001F3C1CDA0C340EDC04F11404C4F120029E
:1004000020FA04F001FA02F340EA030021FA04F3AF
:1004100045EA030130BDC4F10C04C4F1200220FA06
:1004200002F001FA04F340EA0300294630BD21FA44
:1004300004F0294630BD94F0000F83F4801306BF0A
:1004400081F480110134013D4EE77FEA645C18BFFE
:100450007FEA655C29D094EA050F08BF90EA020F95
:1004600005D054EA000C04BF1946104630BD91EA8D
:10047000030F1EBF0021002030BD5FEA545C05D190
:100480004000494128BF41F0004130BD14F58004CF
:100490003CBF01F5801130BD01F0004545F0FE4143
:1004A00041F470014FF0000030BD7FEA645C1ABF78
:1004B000194610467FEA655C1CBF0B46024650EAAF
:1004C000013406BF52EA033591EA030F41F40021DB
:1004D00030BD00BF90F0000F04BF0021704730B561
:1004E0004FF4806404F132044FF000054FF0000136
:1004F00050E700BF90F0000F04BF0021704730B5F7
:100500004FF4806404F1320410F0004548BF4042CB
:100510004FF000013EE700BF42004FEAE2014FEA20
:1005200031014FEA02701FBF12F07F4393F07F4FFB
:1005300081F06051704732F07F4208BF704793F0FE
:100540007F4F04BF41F40021704730B54FF4607411
:1005500001F0004521F000411CE700BF50EA010214
:1005600008BF704730B54FF000050AE050EA0102BD
:1005700008BF704730B511F0004502D5404261EB2D
:1005800041014FF4806404F132045FEA915C3FF46E
:10059000D8AE4FF003025FEADC0C18BF03325FEA0B
:1005A000DC0C18BF033202EBDC02C2F1200300FABC
:1005B00003FC20FA02F001FA03FE40EA0E0021FAE1
:1005C00002F11444BDE600BF70B54FF0FF0C4CF4CF
:1005D000E06C1CEA11541DBF1CEA135594EA0C0F81
:1005E00095EA0C0F00F0DEF82C4481EA030621EABC
:1005F0004C5123EA4C5350EA013518BF52EA0335F7
:1006000041F4801143F4801338D0A0FB02CE4FF0A8
:100610000005E1FB02E506F00042E0FB03E54FF0D8
:100620000006E1FB03569CF0000F18BF4EF0010ED0
:10063000A4F1FF04B6F5007F64F5407404D25FEACC
:100640004E0E6D4146EB060642EAC62141EA55517F
:100650004FEAC52040EA5E504FEACE2EB4F1FD0CC1
:1006600088BFBCF5E06F1ED8BEF1004F08BF5FEA3F
:10067000500E50F1000041EB045170BD06F00046F1
:1006800046EA010140EA020081EA0301B4EB5C049E
:10069000C2BFD4EB0C0541EA045170BD41F4801196
:1006A0004FF0000E013C00F3AB8014F1360FDEBFBB
:1006B000002001F0004170BDC4F10004203C35DA97
:1006C0000C341BDC04F11404C4F1200500FA05F31A
:1006D00020FA04F001FA05F240EA020001F00042BB
:1006E00021F0004110EBD37021FA04F642EB060131
:1006F0005EEA430E08BF20EAD37070BDC4F10C045B
:10070000C4F1200500FA04F320FA05F001FA04F21E
:1007100040EA020001F0004110EBD37041F100010A
:100720005EEA430E08BF20EAD37070BDC4F1200515
:1007300000FA05F24EEA020E20FA04F301FA05F27D
:1007400043EA020321FA04F001F0004121FA04F225
:1007500020EA020000EBD3705EEA430E08BF20EAF5
:10076000D37070BD94F0000F0FD101F0004640002F
:1007700041EB010111F4801F08BF013CF7D041EAB1
:10078000060195F0000F18BF704703F000465200B5
:1007900043EB030313F4801F08BF013DF7D043EA86
:1007A0000603704794EA0C0F0CEA135518BF95EA3C
:1007B0000C0F0CD050EA410618BF52EA4306D1D1C3
:1007C00081EA030101F000414FF0000070BD50EAE2
:1007D000410606BF1046194652EA430619D094EA6C
:1007E0000C0F02D150EA013613D195EA0C0F05D156
:1007F00052EA03361CBF104619460AD181EA0301AA
:1008000001F0004141F0FE4141F470014FF0000061
:1008100070BD41F0FE4141F4780170BD70B54FF0FC
:10082000FF0C4CF4E06C1CEA11541DBF1CEA13557C
:1008300094EA0C0F95EA0C0F00F0A7F8A4EB05045E
:1008400081EA030E52EA03354FEA013100F0888055
:100850004FEA03334FF0805545EA131343EA12631E
:100860004FEA022245EA111545EA10654FEA0026D3
:100870000EF000419D4208BF964244F1FD0404F58C
:10088000407402D25B084FEA3202B61A65EB0305E8
:100890005B084FEA32024FF480104FF4002CB6EBA5
:1008A000020E75EB030E22BFB61A754640EA0C0025
:1008B0005B084FEA3202B6EB020E75EB030E22BF65
:1008C000B61A754640EA5C005B084FEA3202B6EBA6
:1008D000020E75EB030E22BFB61A754640EA9C0065
:1008E0005B084FEA3202B6EB020E75EB030E22BF35
:1008F000B61A754640EADC0055EA060E18D04FEAF3
:10090000051545EA16754FEA06164FEAC30343EA92
:1009100052734FEAC2025FEA1C1CC0D111F4801F5F
:100920000BD141EA00014FF000004FF0004CB6E758
:1009300011F4801F04BF01430020B4F1FD0C88BFF7
:10094000BCF5E06F3FF6AFAEB5EB030C04BFB6EB02
:10095000020C5FEA500C50F1000041EB045170BDF5
:100960000EF0004E4EEA113114EB5C04C2BFD4EB22
:100970000C0541EA045170BD41F480114FF0000EA6
:10098000013C90E645EA060E8DE60CEA135594EA22
:100990000C0F08BF95EA0C0F3FF43BAF94EA0C0F25
:1009A0000AD150EA01347FF434AF95EA0C0F7FF49A
:1009B00025AF104619462CE795EA0C0F06D152EAEE
:1009C00003353FF4FDAE1046194622E750EA4106D2
:1009D00018BF52EA43067FF4C5AE50EA41047FF4E3
:1009E0000DAF52EA43057FF4EBAE12E74FF0FF3C48
:1009F00006E000BF4FF0010C02E000BF4FF0010C19
:100A00004DF804CD4FEA410C7FEA6C5C4FEA430C91
:100A100018BF7FEA6C5C1BD001B050EA410C0CBFE0
:100A200052EA430C91EA030F02BF90EA020F002042
:100A3000704710F1000F91EA030F58BF994208BFA9
:100A400090422CBFD8176FEAE37040F00100704766
:100A50004FEA410C7FEA6C5C02D150EA013C07D1BD
:100A60004FEA430C7FEA6C5CD6D152EA033CD3D008
:100A70005DF8040B704700BF8446104662468C4602
:100A80001946634600E000BF01B5FFF7B7FF002835
:100A900048BF10F1000F01BD4DF808EDFFF7F4FF5E
:100AA0000CBF012000205DF808FB00BF4DF808EDE9
:100AB000FFF7EAFF34BF012000205DF808FB00BF0C
:100AC0004DF808EDFFF7E0FF94BF012000205DF82E
:100AD00008FB00BF4DF808EDFFF7CEFF94BF0120E3
:100AE00000205DF808FB00BF4DF808EDFFF7C4FFDC
:100AF00034BF012000205DF808FB00BF4FEA410C25
:100B00007FEA6C5C02D150EA013C0AD14FEA430C07
:100B10007FEA6C5C02D152EA033C02D14FF0000044
:100B200070474FF0010070474FEA410212F5001282
:100B300015D211D56FF47873B3EB625212D94FEA24
:100B4000C12343F0004343EA505311F0004F23FA0E
:100B500002F018BF404270474FF00000704750EA63
:100B6000013005D111F0004008BF6FF00040704720
:100B70004FF00000704700BF80B483B000AF7860D2
:100B8000064BD3F8902005497B681343C1F8903099
:100B900000BF0C37BD465DF8047B70470008005865
:100BA00080B485B000AF78604FF0B043DA6C4FF09E
:100BB000B0417B681343CB644FF0B043DA6C7B6881
:100BC0001340FB60FB6800BF1437BD465DF8047B33
:100BD000704780B485B000AF78604FF0B043D3F871
:100BE0004C214FF0B0417B681343C1F84C314FF0BA
:100BF000B043D3F84C217B681340FB60FB6800BF17
:100C00001437BD465DF8047B704780B500AF03F034
:100C10009FFB03F0A3FB4FF48030FFF7ADFF00F024
:100C200021F800F0C1F800BF80BD0000B0B588B069
:100C300000AF0B4B3C1D1D460FCD0FC495E80700C0
:100C400003C422800234130C237009F0DBFE3B1D29
:100C5000184609F02CF900BF2037BD46B0BD00BFD3
:100C6000F0D9000880B588B000AF3B1D00221A60A3
:100C70005A609A60DA601A610023BB8300237B8389
:100C800000233B830023FB7736E0FB7F434ADB00F6
:100C900013449B79002B2CD0FB7F404A52F8333011
:100CA0003F4A93421BD03E4A934221D8B3F1904F22
:100CB00003D03C4A934209D01AE0FB7F374ADB005D
:100CC00013449A88BB8B1343BB8312E0FB7F334AE8
:100CD000DB0013449A887B8B13437B8309E0FB7F03
:100CE0002E4ADB0013449A883B8B13433B8300E07E
:100CF00000BFFB7F0133FB77FB7F252BC5D900238A
:100D0000FB600123BB6003233B61BB8B002B14D032
:100D1000BB8B7B600120FFF743FF0120FFF759FFEA
:100D20003B1D19464FF0904003F046FEBB8B00225E
:100D300019464FF0904003F0AFFF7B8B002B12D091
:100D40007B8B7B600220FFF72BFF0220FFF741FF28
:100D50003B1D1946134803F02FFE7B8B00221946DA
:100D6000104803F099FF3B8B002B13D03B8B7B602B
:100D70000420FFF715FF0420FFF72BFF3B1D19464A
:100D8000074803F019FE3B8B00221946044803F084
:100D900083FF00BF00BF2037BD4680BD88DA000852
:100DA000000800480004004880B400AF00BFBD4602
:100DB0005DF8047B7047000080B483B000AF7860BA
:100DC000074BD3F8803023F0070205497B681343B3
:100DD000C1F8803000BF0C37BD465DF8047B70471A
:100DE0000004005880B483B000AF7860064BD3F89D
:100DF000902005497B681343C1F8903000BF0C3741
:100E0000BD465DF8047B70470008005880B483B08D
:100E100000AF78604FF0B0430A4AC3F89C204FF00F
:100E2000B043D3F89C3023F47C527B681B024FF014
:100E3000B0411343C1F89C3000BF0C37BD465DF88C
:100E4000047B7047FECAFECA80B483B000AF7860EE
:100E50004FF0B0439B6823F400424FF0B0417B68F1
:100E600013438B6000BF0C37BD465DF8047B7047B1
:100E700080B400AF4FF0B043D3F890304FF0B042A1
:100E800043F48033C2F8903000BFBD465DF8047B68
:100E9000704780B400AF4FF0B043D3F890304FF0BC
:100EA000B04223F48033C2F8903000BFBD465DF8F5
:100EB000047B704780B400AF4FF0B043D3F8943058
:100EC00003F08063B3F1806F01D1012300E00023C0
:100ED0001846BD465DF8047B704780B400AF4FF004
:100EE000B043D3F8943003F08053B3F1805F01D165
:100EF000012300E000231846BD465DF8047B7047DF
:100F000080B485B000AF78604FF0B0431A6D4FF0F9
:100F1000B0417B6813430B654FF0B0431A6D7B689B
:100F20001340FB60FB6800BF1437BD465DF8047BCF
:100F30007047000080B400AF044B1B68C3F30B0381
:100F40001846BD465DF8047B704700BF002004E0F2
:100F500080B400AF044B1B681B0C9BB21846BD4607
:100F60005DF8047B704700BF002004E080B483B0CC
:100F700000AF786039607B685A683B681B041A438D
:100F80007B685A6000BF0C37BD465DF8047B704734
:100F900080B483B000AF786039607B685A683B6882
:100FA0001A437B685A6000BF0C37BD465DF8047B6E
:100FB000704780B483B000AF786039607B685A694D
:100FC0003B681B041A437B685A6100BF0C37BD465F
:100FD0005DF8047B704780B483B000AF78603960FF
:100FE0007B685A693B681A437B685A6100BF0C37BB
:100FF000BD465DF8047B704780B483B000AF786075
:1010000039607B683A689A6000BF0C37BD465DF86E
:10101000047B704780B483B000AF786039607B6830
:101020003A689A6100BF0C37BD465DF8047B704793
:1010300080B400AF054B1B69044A23F0040313611D
:1010400000BFBD465DF8047B704700BF00ED00E0C7
:1010500080B483B000AF78607B68FF225A6200BF23
:101060000C37BD465DF8047B704780B483B000AF99
:1010700078607B68CA225A627B6853225A6200BF3A
:101080000C37BD465DF8047B704780B483B000AF79
:10109000786039607B689B6823F007023B681A43DD
:1010A0007B689A6000BF0C37BD465DF8047B7047D3
:1010B00080B500AF044B4FF400421A6100F030F8E5
:1010C00000F070F800BF80BD0040005880B500AF50
:1010D00000F07CF800F094F80949002000F08CFE44
:1010E000FFF793FD0121012009F02AFD00F061F9CD
:1010F00000F06FF900F0F0F900F090F800BF80BD4B
:101100006806002080B400AF00BFBD465DF8047BD8
:10111000704780B500AF5020FFF764FE00BF80BD70
:1011200080B500AF00F004F800F01AF800BF80BDF1
:1011300080B500AFFFF7BEFE0346002B0DD0FFF7D2
:10114000CCFE0346002B08D103F080FE03F07EFEA8
:10115000FFF78EFEFFF79DFE00BF00BF80BD0000C1
:1011600080B500AF4FF48010FFF7CAFE3F210C4856
:10117000FFF742FF3F210A48FFF74CFF3F21084895
:10118000FFF7F4FE3F210648FFF713FF3F21044815
:10119000FFF7FEFE3F210248FFF71DFF00BF80BDA5
:1011A000000C005880B582B000AF002008F01AFD96
:1011B00078607B68002B05D07B689B791846FFF729
:1011C00025FE00BF00BF0837BD4680BD80B500AF1B
:1011D000FFF798FFFFF79DFF00F002F800BF80BD0A
:1011E00080B500AF0548FFF740FF00210348FFF737
:1011F0004CFF0248FFF72CFF00BF80BD00280040D5
:1012000080B500AF4FF40040FFF71EFE09F086FCEA
:101210000420FFF7D1FD00BF80BD000080B588B07D
:1012200000AF09F039FA114A0021402009F0EAFD27
:101230000F4B3B600F4B7B603B4619460E4808F056
:1012400011FF0E4BBB600E4BFB600E4B3B6140F23F
:101250003C537B6107F10803184609F05FFB09F076
:1012600015FA00BF2037BD4680BD00BF9DA0000815
:101270003407032089120008A11200084C0903203A
:1012800040080320F801032080B483B000AF034678
:10129000FB7100BF0C37BD465DF8047B7047000052
:1012A00080B588B000AF78607B685B680B33FB610A
:1012B000FB691B889BB2A3F51243072B1FD801A221
:1012C00052F823F0E5120008F7120008FF12000898
:1012D000FF120008FF120008FF120008FF120008AA
:1012E000FF12000807F10C03184608F00DFE78689D
:1012F00000F01BF804E0786800F006F800E000BF9A
:1013000000BF2037BD4680BD80B485B000AF786097
:101310007B685B680B33FB60FB680233BB6000BF1C
:101320001437BD465DF8047B704780B58AB000AFC6
:10133000786007F1080300221A605A609A60DA6048
:1013400000237B6200233B627B685B680B33FB619D
:10135000FB690233BB61BB691B78002B1DD1FFF712
:1013600065FC0F233B727F23BB72FFF7F1FD7862B0
:101370007B6A9BB2BB82FFF7DDFD38623B6A9BB2A2
:10138000FB8207F10803184608F0A8FD01F0CEFD26
:101390000021012009F0D4FB07E0BB691B78012B79
:1013A00003D17B6800221A7000BF00BF2837BD46FA
:1013B00080BD80B500AF002002F0C4FD012002F026
:1013C000C1FD022002F0BEFD012002F0F5FD00BFCC
:1013D00080BD80B500AF0121002002F021FE012177
:1013E000012002F01DFE0121022002F019FE00BFC3
:1013F00080BD80B584B000AF786002F065FFB86052
:101400007B68FB60FB68B3F1FF3F0AD002F074FF1A
:1014100003461A46FB681344FB6002E0FFF708FE30
:1014200030BF02F051FF0246BB68D31AFA689A42F5
:10143000F4D800BF00BF1037BD4680BD80B500AFF7
:101440004FF0FF3009F0E2FB00BF80BD80B500AF78
:1014500009F0A6FB00BF80BD80B582B000AF786008
:101460000021402009F0F0FC00BF0837BD4680BDD8
:1014700080B582B000AF7860022009F051FD00BF56
:101480000837BD4680BD80B582B000AF78600220CD
:1014900009F066FD00BF0837BD4680BD80B582B04B
:1014A00000AF0346FB80FB88102B06D0102B0DDC11
:1014B000012B05D0022B06D008E001F0CDFE06E09E
:1014C00001F0D0FE03E001F0D5FE00E000BF00BF58
:1014D0000837BD4680BD000080B500AF034B012238
:1014E0000349002000F0F4FE00BF80BDF5140008A1
:1014F0007402002080B500AF134B1B88FF2B1AD855
:10150000124B1B780D2B0BD100F026F80E4B00224E
:101510001A804FF4807200210D480AF00AFB0AE09D
:10152000094B1B885A1C91B2074A11801A46074B77
:101530001978074B9954074B01220449002000F009
:10154000C7FE00BF80BD00BF7C03002074020020E6
:101550007C020020F514000880B500AF154916483C
:10156000FEF70EFE0346002B06D1144B144A1A60F8
:10157000124803F0FFF91BE012490F48FEF700FE86
:101580000346002B07D10D4B4FF0B0521A600B48A9
:1015900003F0F0F90CE00C490748FEF7F1FD0346B3
:1015A000002B05D1054B094A1A60044803F0E2F903
:1015B00000BF80BD0CDA00087C0200206C02002015
:1015C0000400001610DA000814DA00080100001602
:1015D00080B483B000AF7860064BD3F88020054913
:1015E0007B681343C1F8803000BF0C37BD465DF8FF
:1015F000047B70470008005880B483B000AF786067
:10160000054B1A6804497B6813430B6000BF0C3715
:10161000BD465DF8047B70470008005880B483B075
:1016200000AF0D4B9B6A9BB27B600B4B9B6A9BB2DE
:101630003B6005E03B687B60074B9B6A9BB23B606D
:101640007A683B689A42F5D13B6818460C37BD462C
:101650005DF8047B704700BF0028004080B485B06F
:1016600000AF03460A46FB711346BB71BA791D49A8
:1016700013465B001344DB000B4415331B78FB73EC
:10168000FB7B062B09D0FA7B164913465B001344FB
:10169000DB000B441433FA791A70FA7911491346B6
:1016A0005B001344DB000B441533FA7B1A70FA79A4
:1016B0000C4913465B001344DB000B441433BA7926
:1016C0001A70BA79074913465B001344DB000B44D8
:1016D0001533FA791A7000BF1437BD465DF8047BE4
:1016E000704700BF8003002080B485B000AF034680
:1016F0000A46FB711346BB71294B1B78DBB2BA79E2
:101700009A4232D0BA79274913465B001344DB0072
:101710000B4414331B78FB73FA7B224913465B009E
:101720001344DB000B441533FA791A70FA791D491A
:1017300013465B001344DB000B441533BA791A706F
:10174000FA79184913465B001344DB000B44143349
:10175000FA7B1A70BA79134913465B001344DB0015
:101760000B441433FA791A7014E0FA790D491346D0
:101770005B001344DB000B441533BA791A70BA7955
:10178000084913465B001344DB000B441433FA7919
:101790001A7000BF1437BD465DF8047B704700BF68
:1017A000100400208003002080B584B000AF034601
:1017B000FB714E4B1B78DBB2062B18D14B4B1B78C1
:1017C000DAB24B4B1A70494AFB791370FA794949DE
:1017D00013465B001344DB000B44153306221A70DA
:1017E000454B4FF0FF321A600023FB8178E000F098
:1017F00009F90346FB81FA793E4913465B0013441D
:10180000DB000B4408331968FB89FA79194439481D
:1018100013465B001344DB00034408331960FA7974
:10182000344913465B001344DB000B4408331B6848
:10183000BB602E4B1B78DBB219462E4A0B465B0071
:101840000B44DB00134408331B68BA689A4237D351
:10185000264B1B787B737A7B264913465B00134427
:10186000DB000B4415331B783B7313E07A7B214973
:1018700013465B001344DB000B4415331B787B736A
:101880007A7B1C4913465B001344DB000B44153381
:101890001B783B733B7B062B0BD03A7B15491346D9
:1018A0005B001344DB000B4408331B68BA689A42A0
:1018B000DCD27A7BFB7911461846FFF7CFFE0FE0AA
:1018C0000A4B1B78DAB2FB7911461846FFF70CFF7A
:1018D000064B1B78DAB2064B1A70044AFB79137078
:1018E000FB8918461037BD4680BD00BF100400209C
:1018F00011040020800300201404002080B485B06F
:1019000000AF03460A46FB711346BB71394B1B7887
:10191000DBB2FA799A4211D1364B1B78DAB2364BE8
:101920001A70FA79354913465B001344DB000B4407
:1019300015331B78DAB22F4B1A703EE0FA792F4933
:1019400013465B001344DB000B4414331B78FB731A
:10195000FA792A4913465B001344DB000B44153324
:101960001B78BB73F979FA7B24480B465B000B4468
:10197000DB00034415331B78D8B2204913465B00C3
:101980001344DB000B44153302461A70BB7B062B55
:1019900013D0F979BA7B19480B465B000B44DB0086
:1019A000034414331B78D8B2144913465B00134424
:1019B000DB000B44143302461A70FA790F491346C0
:1019C0005B001344DB000B440C3301221A70094BFB
:1019D0001B78DBB2062B07D1BB79002B04D1084B57
:1019E0004FF0FF321A6000BF00BF1437BD465DF8EC
:1019F000047B7047100400201104002080030020A5
:101A00001404002080B582B000AF1A4B1B68B3F1FC
:101A1000FF3F26D0FFF702FE7860164B1B687A68FE
:101A20009A4205D8134B1A687B68D31A7B600AE088
:101A3000114B1B881A467B68D31A3B600D4B1B6801
:101A40003A6813447B600D4B1B781A467B6802FB97
:101A500003F37B600A4B1B781A467B68D3407B609C
:101A600001E000237B607B689BB218460837BD46C7
:101A700080BD00BF140400201C0400201A040020B4
:101A80001904002080B582B000AF0346FB80FB88BC
:101A9000002B08D1FFF7C2FD0346214A1360032043
:101AA00002F0DFFD39E0FB88012B03D81D4B1B78CA
:101AB000012B02D0FB88013BFB8000BF1A4B1B6847
:101AC000DB6803F00403002BF8D0174B1B68DB68BE
:101AD000DAB2154B1B6862F49062DA60134B4FF474
:101AE0000022DA60032002F0CAFD114B5B691B0C77
:101AF0001B04FA880E4913434B61FFF78FFD034621
:101B0000074A1360084B1B689A68074B1B6842F42E
:101B100080629A60AFF3008000BF0837BD4680BD89
:101B20001404002019040020680600200008005852
:101B30000028004080B584B000AF454B9B6803F49B
:101B40008063B3F5806F07D100BF424B1B68DB6831
:101B500003F00403002BF8D13E4B1B689A683D4B01
:101B60001B6822F480629A603B4B1B78FB73FA7B04
:101B70003A4913465B001344DB000B4408331B68EF
:101B8000BB60FFF73FFF0346FB80FB88BA689A42C1
:101B900005D20023BB81324B01221A704DE0FB8835
:101BA000304A128892B213441A46BB68934206D94F
:101BB0002C4B1B88BB812A4B00221A703DE0BB686E
:101BC0009AB2FB88D31ABB81254B01221A7034E0EC
:101BD000FA7B224913465B001344DB000B440833B5
:101BE0001A68FB889A420AD2FA7B1C4913465B00AA
:101BF0001344DB000B44083300221A6013E0FA7B25
:101C0000164913465B001344DB000B440833196884
:101C1000FB88FA7BC91A114813465B001344DB00AA
:101C2000034408331960FA7B0C4913465B001344E4
:101C3000DB000B4415331B78FB73FB7B062BC7D1F2
:101C4000BB891846FFF71EFF00BF1037BD4680BD99
:101C500000280040680600201004002080030020B7
:101C6000180400201E04002080B58AB000AFEFF3F6
:101C700010837B617B697B6272B600BF594B1B6826
:101C8000CA225A62574B1B6853225A62554B1B6833
:101C90009A68544B1B6822F480629A60524B1B78FE
:101CA00087F8233097F82320504913465B001344EC
:101CB000DB000B440C331B78DBB2022B6ED197F8A0
:101CC00023204A4913465B001344DB000B441B6886
:101CD000FB6197F82320454913465B001344DB0062
:101CE0000B4410331B68BB61414B1B78DBB2002BEC
:101CF0004CD097F823203D4913465B001344DB008A
:101D00000B440D331B78DBB2012B24D197F8233021
:101D100001211846FFF7F2FD7B6A3B613B6983F3C3
:101D2000108800BF97F82320304913465B00134406
:101D3000DB000B4404331A6897F823301146184629
:101D400000F032FA274B1B68CA225A62254B1B68E7
:101D500053225A6212E07B6AFB60FB6883F31088AF
:101D600000BF97F82330184600F09AF91D4B1B6806
:101D7000CA225A621B4B1B6853225A6297F82330BF
:101D8000FA691946B86900F095FA22E0FFF7D2FE29
:101D90007B6ABB60BB6883F310881AE000BF114BFD
:101DA0001B68DB6803F00403002BF8D00D4B1B68A5
:101DB000DB68DAB20B4B1B6862F49062DA600D4BA1
:101DC0004FF40022DA607B6A7B607B6883F31088C3
:101DD00000BF044B1B68FF225A6200BF2837BD4674
:101DE00080BD00BF68060020100400208003002092
:101DF000180400200008005880B588B000AF0346E2
:101E00003960FB715E4B1B68CA225A625C4B1B68CF
:101E100053225A625B4B9B685A4A43F020039360FB
:101E2000584B9B68DBB203F00703DBB2C3F104033A
:101E3000DAB2554B1A70534B1B6903F4FE034FF48F
:101E4000FE023A613A6992FAA2F2FA60FA687A619D
:101E50007A69002A01D1202203E07A69B2FA82F27B
:101E6000D2B2D340DBB20133DAB2484B1A70454BE1
:101E70001B699BB2C3F30E039BB201339AB2444B6E
:101E80001A80434B1B88013B404A127802FB03F344
:101E9000A3F5A0733C4A1278D340BB61BB694FF6EF
:101EA000FE72934204D93B4B4FF6FF721A8003E057
:101EB000BB699AB2374B1A804FF40020FFF79CFBA6
:101EC0004FF40020FFF784FBFB79002B3DD1324B10
:101ED00001221A70314B4FF0FF321A600023FB775A
:101EE0000CE0FA7F2E4913465B001344DB000B44E1
:101EF0000C3300221A70FB7F0133FB77FB7F052B2D
:101F0000EFD9284B06221A701D4B1B689A681C4B90
:101F10001B6822F480629A60194B1B68DB68DAB296
:101F2000174B1B6862F49062DA601F4B4FF400227B
:101F3000DA60032002F0A3FB114B1B689A68104B78
:101F40001B6842F480429A6009E00D4B1B68DB6815
:101F500003F48063002B02D0032002F082FB084BC5
:101F60001B68FF225A6200220321032002F037FB84
:101F7000032002F04EFB00BF2037BD4680BD00BFEE
:101F80006806002000280040190400201A040020E0
:101F90001C0400201E04002018040020140400204B
:101FA00080030020100400200008005880B48BB08B
:101FB00000AFF860B9603B601346FB71002387F8FF
:101FC0002630EFF31083FB61FB693B6272B600BF02
:101FD00004E097F82630013387F8263097F826304A
:101FE000052B0CD897F826202C4913465B00134488
:101FF000DB000B440C331B78DBB2002BE9D197F8E4
:102000002630062B38D097F82620244913465B004B
:102010001344DB000B440C3301221A703B6ABB6192
:10202000BB6983F3108800BF97F826201B4913462D
:102030005B001344DB000B441033FA681A6097F816
:102040002620164913465B001344DB000B440D3376
:10205000FA791A7097F82620104913465B0013444A
:10206000DB000B443A681A60BB6897F826201A70A8
:10207000002387F8273008E03B6A7B617B6983F3A4
:10208000108800BF012387F8273097F827301846BB
:102090002C37BD465DF8047B704700BF80030020ED
:1020A00080B586B000AF0346FB71EFF31083FB6091
:1020B000FB687B6172B600BF032002F0B8FA344BB4
:1020C0001B68CA225A62324B1B6853225A62FA7941
:1020D000304913465B001344DB000B440C331B7880
:1020E000DBB2022B42D1FB7900211846FFF706FC38
:1020F000294B1B78FB74FB7C062B2FD1274B9B684D
:1021000003F48063B3F5806F07D100BF204B1B68D9
:10211000DB6803F00403002BF8D11D4B1B689A68A1
:102120001B4B1B6822F480629A6000BF184B1B682F
:10213000DB6803F00403002BF8D0154B1B68DB6849
:10214000DAB2134B1B6862F49062DA60144B4FF4FE
:102150000022DA60032002F092FA07E0114B1B78AC
:10216000DBB2FA7C9A4201D0FFF7E4FC084B1B6813
:10217000FF225A62032002F04CFA7B69BB60BB6805
:1021800083F3108800BF00BF1837BD4680BD00BF75
:102190006806002080030020100400200028004072
:1021A000000800581104002080B586B000AF034637
:1021B0003960FB71FA793B4913465B001344DB003D
:1021C0000B440C331B78DBB2022B03D1FB7918468E
:1021D000FFF766FFEFF31083FB60FB687B6172B66D
:1021E00000BF032002F023FA2F4B1B68CA225A6259
:1021F0002D4B1B6853225A62FA792A4913465B0019
:102200001344DB000B440C3302221A70FA7925497F
:1022100013465B001344DB000B4408333A681A6032
:10222000FA79204913465B001344DB000B44043366
:102230003A681A60FB791846FFF7B6FA03467B82C4
:102240001A4B1B787B741A4B1B78DBB27A7C9A4250
:1022500002D0FFF76FFC13E0FA79124913465B00D6
:102260001344DB000B44083319687B8AFA79C91AD6
:102270000C4813465B001344DB0003440833196029
:10228000094B1B68FF225A62032002F0C2F97B69E6
:10229000BB60BB6883F3108800BF00BF1837BD4622
:1022A00080BD00BF800300206806002010040020CD
:1022B0001104002080B584B000AFF8600B467A604E
:1022C000FB727B68984700BF1037BD4680BD000099
:1022D00080B584B000AFB9607B600346FB731346E2
:1022E000BB81FB7B002B02D0022B0DD019E00F4AE3
:1022F0007B6813600E4B0F4A1A60BB891A46B96897
:102300000B4804F071FD0CE00B4A7B6813600B4B2B
:102310000B4A1A60BB891A46B968084804F064FD84
:1023200000BF00BF1037BD4680BD00BF20040020A5
:102330000005002000380140280400206C04002023
:102340000080004080B582B000AF78607B681B6879
:102350000F4A93420AD00F4A93420FD10E4B1B688B
:10236000002B0DD00C4B1B68984709E00B4B1B68EA
:10237000002B07D0094B1B68984703E000BF02E021
:1023800000BF00E000BF00BF0837BD4680BD00BFF2
:102390000080004000380140200400202804002074
:1023A00080B582B000AF78607B681B680F4A9342AB
:1023B0000AD00F4A93420FD10E4B1B68002B0DD051
:1023C0000C4B1B68984709E00B4B1B68002B07D090
:1023D000094B1B68984703E000BF02E000BF00E024
:1023E00000BF00BF0837BD4680BD00BF0080004071
:1023F00000380140240400202C04002080B483B065
:1024000000AF78604FF0B043D3F8903023F018025B
:102410004FF0B0417B681343C1F8903000BF0C37D8
:10242000BD465DF8047B704780B485B000AF78602E
:102430004FF0B0439A6C4FF0B0417B6813438B640C
:102440004FF0B0439A6C7B681340FB60FB6800BFA1
:102450001437BD465DF8047B704780B485B000AF8B
:1024600078604FF0B043DA6C4FF0B0417B681343B3
:10247000CB644FF0B043DA6C7B681340FB60FB68C1
:1024800000BF1437BD465DF8047B704780B500AFD0
:1024900001F0ACFEFEF70CFE00F014F800F070F84E
:1024A00000F08EF800F00FF900F0F0F800F0BAF844
:1024B00000F0A2F800F098F8FEF708FEFEF7BEFF65
:1024C000FCE7000080B59AB000AF07F12003482276
:1024D0000021184609F02DFB3B1D00221A605A60AE
:1024E0009A60DA601A615A619A6102F0AFFC0020CA
:1024F000FFF784FF214B1B6823F4C0631F4A43F49A
:10250000007313601D4B1B6803F4C0633B603B68A2
:1025100047233B624FF480337B620123BB624FF45D
:102520008073FB620123BB6440233B630023FB6495
:1025300007F12003184603F005F80346002B01D0ED
:1025400000F0CEF86F237B600223BB600023FB60AA
:1025500000233B6100237B610023BB610023FB61FF
:102560003B1D0121184603F061FB0346002B01D0FF
:1025700000F0B6F800BF6837BD4680BD00040058C3
:1025800080B594B000AF3B4650220021184609F0B8
:10259000D0FA4FF440533B604FF480437B640223F6
:1025A000BB641023FB643B46184603F050FF034610
:1025B000002B01D000F094F800BF5037BD4680BD1D
:1025C00080B500AF064B074A1A60054802F0B8FB19
:1025D0000346002B01D000F083F800BF80BD00BF90
:1025E00030040020000C005880B400AF00BFBD468E
:1025F0005DF8047B7047000080B500AF074B084AC8
:102600001A60064B00225A60044804F0A7F90346FA
:10261000002B01D000F064F800BF80BD54060020FC
:102620000010005880B500AF164B174A1A60154BC2
:1026300000225A60134B0F229A60124B47F6FF722A
:10264000DA60104B00221A610E4B00229A610D4B8A
:102650000022DA610B4B00225A610A4804F0B3F9F8
:102660000346002B01D000F03BF800220021054872
:1026700004F0B8FA0346002B01D000F031F800BF97
:1026800080BD00BF680600200028004080B500AF74
:102690000420FFF7C9FE0120FFF7C6FE0220FFF766
:1026A000C3FE00220F210E2001F099FF0E2001F041
:1026B000B0FF00220F213A2001F091FF3A2001F0F3
:1026C000A8FF00BF80BD80B500AF0420FFF7C5FEA6
:1026D0000120FFF7C2FE0220FFF7BFFE00BF80BD52
:1026E00080B400AF00BFBD465DF8047B70470000BA
:1026F00080B483B000AF7860064B1B6823F00702FC
:1027000004497B6813430B6000BF0C37BD465DF87E
:10271000047B70470004005880B400AF034B1F22B5
:102720009A6100BFBD465DF8047B70470004005805
:1027300080B400AF074BD3F8883003F48063B3F55F
:10274000806F01D1012300E000231846BD465DF8EB
:10275000047B70470004005880B400AF074BD3F8E7
:10276000883003F40043B3F5004F01D1012300E0AA
:1027700000231846BD465DF8047B704700040058EE
:1027800080B400AF4FF0B0431B684FF0B04243F449
:102790008033136000BFBD465DF8047B704780B492
:1027A00000AF4FF0B0431B6803F40033B3F5003FB4
:1027B00001D1012300E000231846BD465DF8047BEB
:1027C000704780B400AF4FF0B0431B684FF0B04289
:1027D00043F48073136000BFBD465DF8047B70470F
:1027E00080B400AF4FF0B0431B6803F48063B3F5CF
:1027F000806F01D1012300E000231846BD465DF83B
:10280000047B704780B483B000AF78604FF0B04372
:102810009B6823F003024FF0B0417B6813438B6049
:1028200000BF0C37BD465DF8047B704780B400AF35
:102830004FF0B0439B6803F00C031846BD465DF8AB
:10284000047B704780B483B000AF78604FF0B04332
:102850005B6A23F003024FF0B0417B6813434B6285
:1028600000BF0C37BD465DF8047B704780B400AFF5
:10287000054B1B69044A23F00403136100BFBD46E6
:102880005DF8047B704700BF00ED00E080B400AF4E
:10289000054B1B69044A43F00403136100BFBD46A6
:1028A0005DF8047B704700BF00ED00E080B483B0AA
:1028B00000AF786039607B683A68203253F8223084
:1028C000054A934201D0012300E0002318460C374B
:1028D000BD465DF8047B70470004008080B485B07D
:1028E00000AFF860B9607A607B6843F48061FB6890
:1028F000BA6843F8221000BF1437BD465DF8047B68
:10290000704780B500AF01F003FD00F035F8FFF728
:1029100003FF0320FFF7ECFEFFF7B8FF30BF00BF57
:1029200080BD80B500AF01F003FD00BF80BD80B564
:1029300000AF01F0EDFC00F01FF80220FFF7D8FE19
:10294000FFF7A4FF30BF00BF80BD80B500AF00F02F
:102950004FF801F0EDFC00BF80BD80B500AF01F085
:10296000D7FCFFF783FF30BF00BF80BD80B500AF4D
:1029700001F0DEFC00BF80BD80B500AF00BF0321C9
:102980001948FFF793FF0346002BF8D1042116489E
:10299000FFF78CFF0346002B17D1FFF7DDFE034640
:1029A000002B04D1FFF7C4FE0346002B15D00022F4
:1029B00004210D48FFF792FF00F05AF80B4B1B68FB
:1029C0000A4A23F00703136007E000F051F8074BB1
:1029D0001B68064A23F00703136000220321024804
:1029E000FFF77CFF00BF80BD001400580040005876
:1029F00080B500AF002204211B48FFF76FFF00BF26
:102A000003211948FFF752FF0346002BF8D1FFF7C7
:102A10000DFF0346042B1FD1FFF7B2FE134B1B68BB
:102A200023F00703114A43F00103136000BF0F4B6B
:102A30001B6803F00703012BF9D100BFFFF7AFFEBE
:102A40000346002BFAD00220FFF7DCFE00BFFFF7A1
:102A5000EDFE0346082BFAD1002203210248FFF7BE
:102A60003DFF00BF80BD00BF00140058004000586B
:102A700080B500AFFFF7A5FE00BFFFF7B1FE03462C
:102A8000002BFAD00120FFF7BDFE0020FFF7DAFE91
:102A900000BFFFF7CBFE0346042BFAD100BF80BD79
:102AA00080B400AF4FF0B043D3F890304FF0B04255
:102AB00043F40043C2F8903000BFBD465DF8047B8C
:102AC000704780B485B000AF78604FF0B0431A6DA6
:102AD0004FF0B0417B6813430B654FF0B0431A6D64
:102AE0007B681340FB60FB6800BF1437BD465DF890
:102AF000047B704780B485B000AF78604FF0B0437E
:102B00009A6D4FF0B0417B6813438B654FF0B04333
:102B10009A6D7B681340FB60FB6800BF1437BD46AD
:102B20005DF8047B704780B500AF4FF40020FFF7DD
:102B3000C8FF002200212E2001F051FD2E2001F0BF
:102B400068FD00BF80BD000080B582B000AF786036
:102B50007B681B680D4A934213D14FF48010FFF736
:102B6000B0FF002200212C2001F039FD2C2001F0C3
:102B700050FD002200212D2001F031FD2D2001F01B
:102B800048FD00BF0837BD4680BD00BF000C00589F
:102B900080B596B000AF786007F10803502200219D
:102BA000184608F0C6FF7B681B680D4A934213D194
:102BB0004FF40073BB604FF080533B6407F1080390
:102BC000184603F044FC0346002B01D0FFF788FDB4
:102BD0004FF48020FFF775FF00BF5837BD4680BD1A
:102BE0000010005880B596B000AF786007F1080378
:102BF00050220021184608F09CFF7B681B68144A8D
:102C0000934220D14FF40063BB604FF48073BB64E8
:102C100007F10803184603F01AFC0346002B01D005
:102C2000FFF75EFDFFF73CFF4FF48060FFF762FFA8
:102C300000220021032001F0D2FC032001F0E9FC76
:102C4000786804F09BF800BF5837BD4680BD00BFD0
:102C50000028004080B400AF00BFBD465DF8047B93
:102C6000704780B400AFFEE780B400AFFEE780B4E9
:102C700000AFFEE780B400AFFEE780B400AF00BF56
:102C8000BD465DF8047B704780B400AF00BFBD4611
:102C90005DF8047B704780B400AF00BFBD465DF8AF
:102CA000047B704780B500AF01F0FAFA00BF80BD29
:102CB00080B500AFFEF7D8FF00BF80BD80B500AF84
:102CC000024801F0A8FD00BF80BD00BF94050020B0
:102CD00080B500AF024804F0D3F800BF80BD00BF4C
:102CE0000005002080B500AF024804F0C9F800BF1D
:102CF00080BD00BF6C04002080B500AF00F018FF5D
:102D000000BF80BD80B500AF00F048FF00BF80BDB0
:102D100080B500AF01F0F0FF00BF80BD80B500AF0F
:102D2000024801F078FD00BF80BD00BFF40500201F
:102D300080B500AF102001F0C7FF00BF80BD80B597
:102D400000AF012001F0C0FF00BF80BD80B500AF23
:102D5000022001F0B9FF00BF80BD80B400AF0123A5
:102D60001846BD465DF8047B704780B582B000AF61
:102D70007860396008F030FF034616221A604FF081
:102D8000FF3318460837BD4680BD80B582B000AF1E
:102D900078604FF0FF317868FFF7E7FFFEE780B516
:102DA00086B000AFF860B9607A6000237B610AE00A
:102DB000AFF300800146BB685A1CBA60CAB21A70F1
:102DC0007B6901337B617A697B689A42F0DB7B68BF
:102DD00018461837BD4680BD80B586B000AFF86094
:102DE000B9607A6000237B6109E0BB685A1CBA6055
:102DF0001B781846AFF300807B6901337B617A69E9
:102E00007B689A42F1DB7B6818461837BD4680BD67
:102E100080B483B000AF78604FF0FF3318460C37B2
:102E2000BD465DF8047B704780B483B000AF786026
:102E300039603B684FF400525A60002318460C3743
:102E4000BD465DF8047B704780B483B000AF786006
:102E5000012318460C37BD465DF8047B704780B4EB
:102E600085B000AFF860B9607A6000231846143767
:102E7000BD465DF8047B704780B586B000AF7860D2
:102E8000144A154BD31A7B617B693B61134B1B685A
:102E9000002B02D1114B124A1A60104B1A687B6842
:102EA00013443A699A4207D208F096FE03460C2270
:102EB0001A604FF0FF3309E0084B1B68FB60074BBB
:102EC0001A687B681344054A1360FB681846183774
:102ED000BD4680BD00000320001000008C060020CD
:102EE0009809002080B400AF034B1B681846BD460C
:102EF0005DF8047B704700BF8075FF1F80B400AF92
:102F0000034B1B68DBB21846BD465DF8047B704777
:102F10008475FF1F80B400AF034B1B681B0A184663
:102F2000BD465DF8047B70478475FF1FB0B590B057
:102F300000AF922387F83F30334B3C1D1D460FCD29
:102F40000FC40FCD0FC40FCD0FC495E8070003C405
:102F5000228000F097F90121022007F0F1FD2B4AB1
:102F60000021042007F04EFF3B1D184606F088FFA5
:102F7000034687F83E3097F83E30002B01D0FFF72C
:102F8000AFFB00F095F907F0DBFA214B002283F844
:102F900080201F4B4FF6FF72DA821E4A002101206B
:102FA00007F030FF1C4A0021022007F02BFF06200B
:102FB00006F04AFA034687F83F30184B00221A7091
:102FC000174B01221A7000F05BFC164B00221649C9
:102FD0000020FEF7EBFF154B002215490020FEF7FD
:102FE000E5FF0B4B00225A76094B00221A76114B53
:102FF00080221A80104BA0221A80012000F02AFAA9
:1030000000BF4037BD46B0BD18DA0008A5980008DB
:1030100098060020BD350008C136000824070020AE
:1030200025070020F535000819070020053600089F
:103030001A0700201C0700201E07002080B58CB056
:1030400000AF7860922387F82F307B680133BB6232
:10305000BB6A1B78FF2B7AD0FF2B00F3ED80052B8A
:1030600002D03E2B20D0E7E0BB6A0233FB60FB6856
:10307000B3F801309AB2744BDB8A9A4206D1724B94
:103080000022DA82704B002283F88020012000F0B9
:10309000E1F96E4B01221A706B4BDA8A6B4B5A8046
:1030A0006A4800F0D9FBCAE0BB6A0233FB61FB69E6
:1030B0001B780C2B09D00C2B45DC012B1BD0032BD0
:1030C00041D1FB6901337B6140E0FB690133BB61A6
:1030D0005D4BDB8A07F10A0207F10B01184606F087
:1030E0002BFA034687F82F3097F82F30002B2CD17E
:1030F000FB7A022B29E0FB6901333B61524B93F8C9
:1031000081301846FEF7CCFF4F4B93F88030042BEC
:1031100004D14D4B062283F8802003E04A4B052260
:1031200083F880203B69B3F801309AB2464BDA82CB
:10313000464B00221A70444BDA8A444B5A8043486B
:1031400000F08AFB02E000BF79E000BF77E0BB6AD5
:1031500002337B627B6A1B889BB240F60E4293422D
:1031600062D040F60E42934268DCB3F5006F4CD05B
:10317000B3F5006F62DC042B4BD0042B5EDB40F216
:103180000A4293425ADCB3F5806F57DBA3F58063A4
:103190000A2B53D801A252F823F000BF35320008A1
:1031A00003320008C9310008353200083D320008FA
:1031B000DD3100083D3200083532000835320008A4
:1031C000EF310008353200081F4BDB8A20491846D2
:1031D00005F0E8FA034687F82F302CE01A4BDB8A1B
:1031E000184605F089FC034687F82F3023E0164B7C
:1031F000DB8A0121184605F0D3FC034687F82F30FF
:1032000019E07B6A02333B6215E0124B01221A700F
:1032100011E0012000F0D0FE0B4B93F882300A2120
:103220001846FEF7C1FF06E0074BDB8A184605F09B
:10323000CAFF00E000BF01E000BF00E000BF0123C3
:1032400018463037BD4680BD980600202007002074
:1032500040E201002507002080B500AF00F038FBF8
:1032600000BF80BD80B500AF0021022007F0ECFD5B
:1032700000BF80BD80B400AF00BFBD465DF8047BD9
:103280007047000080B582B000AF064B3B60064B34
:103290007B603B461946054806F0E8FA00BF083750
:1032A000BD4680BD2800032069370008313700087B
:1032B000F0B58DB006AF00233B809223FB7506F07E
:1032C00017F90346FB7500F035F938613A690621B4
:1032D000002005F0CDFF0346FB753B6905331A78E6
:1032E000564B1A723B6904331A78544B5A723B6935
:1032F00003331A78514B9A723B6902331A784F4B59
:10330000DA723B6901331A784C4B1A733B691A78AD
:103310004A4B5A734A4A1021182005F0A9FF034668
:10332000FB75484A1021082005F0A2FF0346FB75F3
:103330001821012006F021F80346FB7505F097FCE3
:103340000346FB750023FB73FB7B43F00103FB7318
:10335000FB7B002B1FD03C4BBB60BA1DF87BBB1C1A
:1033600001933B1D009313460722002105F081FACB
:103370000346FB75FC88BD88B868FCF761FF03460F
:10338000DAB2BB680093134600222946204605F0B6
:1033900071FE0346FB75F88879883B46009302234B
:1033A000002205F067FE0346FB7502220221002081
:1033B00006F040F90346FB75244B01221A70234B9B
:1033C0001B78184605F0D6F80346FB751F4B012203
:1033D0005A701E4B08221A711C4B10225A711B4B3B
:1033E0000022DA70194B1A4A9A60184B01229A701F
:1033F000164B9C78154B5D78144B1B79134A527908
:103400001249C978114880680026049603900291F9
:1034100001920093002301222946204605F0FEF880
:103420000346FB75094B9B78002B03D005F040FB4E
:103430000346FB7500BF1C37BD46F0BD10000020E1
:10344000D8DB0008E8DB000854DA00089806002002
:1034500007B2010080B58CB008AF0346FB71922320
:10346000FB72FB79012B06D12B4B1B88FB812B4B6D
:103470001B88BB8105E04FF4C863FB814FF47A637E
:10348000BB81274B93F881301846FEF709FEFB7984
:10349000022B0DD1224B93F88030012B04D0204B0E
:1034A00093F88030022B03D104F046FF0346FB72F1
:1034B0001B4AFB7982F88030194B1B7EBA89F98947
:1034C0000020069000200590164804900393164BA8
:1034D000029308230193002300930023002004F0AB
:1034E0004FFF0346FB7211490E2005F06FFA0346A9
:1034F000FB72FB7A002B0AD1FB79012B07D1084B19
:1035000093F881300A491846FEF74EFE00BF00BF0F
:103510001037BD4680BD00BF1C0700201E070020DD
:1035200098060020B1060020F8DB000810000020FB
:1035300046E0010080B586B000AFFFF7D3FC3861EC
:103540003B69B3F1FF3F23D0FFF7E4FCB860FFF71E
:10355000D5FC78603B69DAB2164B1A703B691B0ADE
:10356000DAB2144B5A707B68DAB2124B9A70BB68AD
:10357000DAB2104BDA70BB681B0ADAB20D4B1A7163
:10358000BB681B0CDAB20B4B5A710A4B7B610BE028
:10359000002006F027FBF860FB68002B02D0FB68D8
:1035A0007B6101E0044B7B617B6918461837BD469F
:1035B00080BD00BF90060020D0DB000880B582B03F
:1035C00000AF012000F012FD094B93F88030052B6D
:1035D0000AD09223FB7104F0AFFE0346FB71044B4B
:1035E000002283F8802000BF00BF0837BD4680BDA1
:1035F0009806002080B500AF0021012007F024FCD0
:1036000000BF80BD80B500AF012000F0EFFC00BF1F
:1036100080BD000090B589B002AF0346FB80244B0B
:103620001B78012B3FD1224B00221A70214B1B78B3
:103630000133002B03F00103B8BF5B42DAB21D4B2C
:103640001A701C4B1B781C4A9B00134493ED007AA4
:10365000F7EE046AC7EE267AFDEEE77A17EE903AA7
:10366000FB82144B1B78144A9B00134493ED007AA1
:10367000F7EE046AC7EE267AFDEEE77A17EE903A87
:10368000BB8200237B824FF4FA733B820B4BD88AB8
:103690007C8ABA8AF98A3B8A0093234606F047F867
:1036A0000346FB7300BF00BF1C37BD4690BD00BF83
:1036B000250700202407002008000020980600208D
:1036C00080B500AF084B93F88030012B0AD0064B31
:1036D00093F88030002B05D0034BDB8A1846FFF7A8
:1036E00099FF00BF00BF80BD9806002080B582B062
:1036F00000AF78600021042007F0A6FB00BF083768
:10370000BD4680BD80B582B000AF7860012007F073
:1037100007FC00BF0837BD4680BD80B582B000AF52
:103720007860012007F01CFC00BF0837BD4680BD53
:1037300080B584B000AF78607B68FB60FB685B6835
:103740000833184606F04EFF0346FB72FB7A002B47
:1037500003D0FB6801221A7003E0FB6800221A7094
:1037600000BF1037BD4680BD80B584B000AF0346B2
:10377000FB71FB79002B02D0012B06D00BE03F231D
:10378000FB60F86807F08CFB05E03F23FB60F868FE
:1037900007F0A6FB00BF00BF1037BD4680BD00008C
:1037A00080B582B000AF78607B681B78032B0ED0A9
:1037B000032B47DC002B02D0012B04D042E0254B29
:1037C00001221A7041E0234B00221A703DE07B6811
:1037D0005B681B78002B17D17B685B6801331B7813
:1037E000012B05D1002000F0E7FB1A4B01229A7053
:1037F0007B685B6801331B78002B05D1002000F04B
:10380000F5FB144B00229A707B685B681B78012BD8
:103810001AD17B685B6801331B78012B05D100202E
:1038200000F0CAFB0B4B01229A707B685B68013386
:103830001B78002B08D1002000F0D8FB054B00229C
:103840009A7001E000BF00E000BF00BF0837BD462E
:1038500080BD00BF2807002080B582B000AF78602F
:103860007B681B78002B05D0012B00D003E000F013
:1038700019F800E000BF00BF0837BD4680BD00005A
:1038800080B500AF054A0021082007F0BBFA044BC1
:1038900000221A7000F006F800BF80BDE138000871
:1038A0002807002080B500AF002000F09FFB074BE9
:1038B00001225A70054B00229A70044B0122DA70E3
:1038C000024B00221A7100BF80BD00BF28070020F4
:1038D00080B500AF0021082007F0B6FA00BF80BD18
:1038E00080B500AF0B4B1B79002B03D1094B012294
:1038F0001A7102E0074B00221A71064B1B78002B4D
:1039000005D005494FF6426006F098FA00BF00BFA7
:1039100080BD00BF280700202B07002080B400AF27
:10392000054BDB68044A43F40043D36000BFBD4647
:103930005DF8047B704700BF0004005880B483B07A
:1039400000AF7860064BD3F8D42005497B68134359
:10395000C1F8D43000BF0C37BD465DF8047B70471A
:103960000008005880B483B000AF7860054B1A6A35
:1039700004497B6813430B6200BF0C37BD465DF8FA
:10398000047B70470008005880B485B000AF7860B1
:103990004FF0B0431A6D4FF0B0417B6813430B6595
:1039A0004FF0B0431A6D7B681340FB60FB6800BFAB
:1039B0001437BD465DF8047B704780B485B000AF16
:1039C00078604FF0B043D3F850214FF0B0417B689E
:1039D0001343C1F850314FF0B043D3F850217B6806
:1039E0001340FB60FB6800BF1437BD465DF8047BE5
:1039F000704780B483B000AF78607B681B6843F485
:103A000080327B681A6000BF0C37BD465DF8047BCE
:103A1000704780B483B000AF78607B681B6843F068
:103A200001027B681A6000BF0C37BD465DF8047B5D
:103A3000704780B483B000AF786039607B685A68A3
:103A40003B681B04DB431A407B685A6000BF0C379D
:103A5000BD465DF8047B704780B483B000AF7860EA
:103A600039607B685A683B681B041A437B685A605C
:103A700000BF0C37BD465DF8047B704780B483B04F
:103A800000AF786039607B685A683B68DB431A4056
:103A90007B685A6000BF0C37BD465DF8047B7047F9
:103AA00080B483B000AF786039607B683A689A6010
:103AB00000BF0C37BD465DF8047B704780B483B00F
:103AC00000AF786039603B681A047B689A6000BF79
:103AD0000C37BD465DF8047B704780B483B000AFFF
:103AE000786039607B68DA683B6813403A689A42CC
:103AF00001D1012300E0002318460C37BD465DF8D4
:103B0000047B704780B483B000AF786039607B6815
:103B1000DA693B6813403A689A4201D1012300E018
:103B2000002318460C37BD465DF8047B7047000043
:103B300080B500AF02211848FFF7E4FF0346002BD1
:103B400008D0154B5B6803F00203002B02D100F094
:103B500025F91EE001211048FFF7D4FF0346002B92
:103B600008D00D4B5B6803F00103002B02D100F07D
:103B700099F80EE008210848FFF7C4FF0346002B20
:103B800008D0054B5B6803F00803002B02D100F05E
:103B90007DF900BF00BF80BD000C005880B500AFAC
:103BA00002211848FFF799FF0346002B08D1154B57
:103BB0005B6803F40033002B02D100F0D3F81EE061
:103BC00008211048FFF789FF0346002B08D10D4B51
:103BD0005B6803F40023002B02D100F019F90EE01A
:103BE00020210848FFF779FF0346002B08D1054B39
:103BF0005B6803F40013002B02D100F05FF800BFF4
:103C000000BF80BD000C005880B500AF4FF480109D
:103C1000FFF7D3FE4FF40070FFF7A4FE4FF40070DF
:103C2000FFF78CFE40BF20BFFFF778FE00BF80BDCE
:103C300080B500AF4FF48010FFF7A6FE0648FFF7EF
:103C4000E8FE0548FFF7D5FE2C2000F0E2FC2D2011
:103C500000F0DFFC00BF80BD000C005880B584B0D0
:103C600000AFEFF310837B607B68FB6072B600BF30
:103C700001210648FFF702FFFB68BB60BB6883F3C6
:103C8000108800BF00BF1037BD4680BD000C005833
:103C900080B500AF01210248FFF710FF00BF80BDD3
:103CA000000C005880B500AF06F080FD01210248ED
:103CB000FFF7F6FE00BF80BD000C005880B584B051
:103CC00000AFEFF310837B607B68FB6072B600BFD0
:103CD00020210748FFF7C0FEFB68BB60BB6883F389
:103CE000108800BF06F092FD00BF1037BD4680BDB2
:103CF000000C005880B584B000AFEFF310837B60F8
:103D00007B68FB6072B600BF02210648FFF7B6FE73
:103D1000FB68BB60BB6883F3108800BF00BF10372F
:103D2000BD4680BD000C005880B584B000AF0221B4
:103D30000B48FFF7C3FEEFF310837B607B68FB60EB
:103D400072B600BF02210648FFF773FEFB68BB6036
:103D5000BB6883F3108800BF00BF1037BD4680BD2D
:103D6000000C005880B584B000AFEFF310837B6087
:103D70007B68FB6072B600BF02210748FFF76CFE4C
:103D8000FB68BB60BB6883F3108800BF06F08EFD44
:103D900000BF1037BD4680BD000C005880B500AF95
:103DA00006F09AFD02210248FFF77AFE00BF80BDAF
:103DB000000C005880B586B000AF7860082112482A
:103DC000FFF78BFE0346002B13D0104A7B6813606D
:103DD000EFF31083FB60FB687B6172B600BF0821C4
:103DE0000948FFF726FE7B693B613B6983F3108836
:103DF00005E07B68984708210348FFF75FFE00BF96
:103E00001837BD4680BD00BF000C005830070020A9
:103E100080B584B000AFEFF310837B607B68FB60FC
:103E200072B600BF08210A48FFF716FEFB68BB60A8
:103E3000BB6883F3108800BF064B1B6898470821B6
:103E40000348FFF73BFE00BF1037BD4680BD00BFF3
:103E5000000C00583007002080B584B000AFEFF3AD
:103E600010837B607B68FB6072B600BF0821064848
:103E7000FFF704FEFB68BB60BB6883F3108800BFDC
:103E800000BF1037BD4680BD000C005880B500AFA4
:103E900006F0CAFD08210248FFF702FE00BF80BD00
:103EA000000C0058D458C4500433C4188C42F9D3C1
:103EB0007047036004308842FBD370470C48854646
:103EC00000F01EF90B480C490C4A0023FFF7EDFFE8
:103ED0000B480C490023FFF7EEFF0B480B4900236A
:103EE000FFF7E9FF07F07EFEFEF7D0FAFEE70000DD
:103EF0000000032008000020140200200CE000084D
:103F00005002002098090020E4010320670A0320E2
:103F1000FEE780B485B000AF78604FF0B043DA6C54
:103F20004FF0B0417B681343CB644FF0B043DA6C81
:103F30007B681340FB60FB6800BF1437BD465DF82B
:103F4000047B704780B588B000AF0346FB7107F172
:103F50000C0300221A605A609A60DA601A6102202B
:103F6000FFF7D7FFFB79124A32F81330FB600123C9
:103F70003B6100237B610223BB61FB790D4A52F850
:103F8000233007F10C021146184600F015FDFB79AD
:103F9000084A52F82300FB79054A32F81330002210
:103FA000194600F079FE00BF2037BD4680BD00BF36
:103FB00000DC00082000002080B582B000AF03467E
:103FC000FB71FB79074A52F82300FB79064A32F865
:103FD00013300122194600F05FFE00BF0837BD46CE
:103FE00080BD00BF2000002000DC000880B582B04A
:103FF00000AF0346FB71FB79074A52F82300FB79B7
:10400000064A32F813300022194600F045FE00BF80
:104010000837BD4680BD00BF2000002000DC00083E
:1040200080B588B000AF03460A46FB711346BB71EA
:1040300007F10C0300221A605A609A60DA601A6174
:10404000FB79002B03D10420FFF763FF0CE0FB7921
:10405000012B03D10820FFF75CFF05E0FB79022B61
:1040600002D10820FFF755FFBB79002B17D1FB7950
:10407000204A32F81330FB6000233B6101237B614F
:104080000223BB61FB791C4A52F8233007F10C0272
:104090001146184600F090FC0120FDF7AAF9BB7903
:1040A000012B23D1FB79134A32F81330FB60012333
:1040B0007B614FF404133B61FB790F4A52F82330C4
:1040C00007F10C021146184600F076FCFB790B4A0A
:1040D000D35C5BB200220F21184600F080FAFB7916
:1040E000064AD35C5BB2184600F093FA00BF203753
:1040F000BD4680BD08DC00082C00002010DC000854
:1041000080B400AF264B00229A60254BD3F888304C
:10411000234A43F47003C2F888304FF0B0431B6861
:104120004FF0B04243F0010313604FF0B0434FF43F
:10413000E0229A604FF0B0431A684FF0B041194B3B
:1041400013400B604FF0B043D3F894304FF0B042BF
:1041500023F00503C2F894304FF0B043D3F8983001
:104160004FF0B04223F00103C2F898304FF0B04353
:104170000D4ADA604FF0B0430B4A1A614FF0B0437A
:104180001B684FF0B04223F4802313604FF0B0431C
:1041900000229A6100BFBD465DF8047B704700BFF6
:1041A00000ED00E0FBFEF6FA0010042280B400AF40
:1041B000054B5B68044A43F00103536000BFBD46F2
:1041C0005DF8047B704700BF002004E080B400AFBE
:1041D000054B5B68044A43F00203536000BFBD46D1
:1041E0005DF8047B704700BF002004E080B582B01A
:1041F00000AF0023FB710C4B1B680B4A43F4807328
:104200001360032000F0E0F9002000F00FF80346EF
:10421000002B02D00123FB7101E0FEF784FCFB7947
:1042200018460837BD4680BD0040005880B584B0B0
:1042300000AF78600023FB73174B1B78002B24D052
:1042400001F0A0FE0246144B1B7819464FF47A7316
:10425000B3FBF1F3B2FBF3F3184600F0F6F90346B3
:10426000002B0FD17B680F2B09D8002279684FF003
:10427000FF3000F0B4F9094A7B68136007E00123BE
:10428000FB7304E00123FB7301E00123FB73FB7B61
:1042900018461037BD4680BD400000203C0000207D
:1042A00080B400AF064B1B781A46064B1B681344BC
:1042B000044A136000BFBD465DF8047B704700BF31
:1042C000400000203407002080B400AF034B1B687F
:1042D0001846BD465DF8047B704700BF34070020D8
:1042E00080B400AF034B1B681846BD465DF8047BE5
:1042F000704700BF3C00002080B400AF034B1B7828
:104300001846BD465DF8047B704700BF40000020A2
:1043100080B400AF054B1B68044A23F0020313600E
:1043200000BFBD465DF8047B704700BF10E000E0B1
:1043300080B400AF054B1B68044A43F002031360CE
:1043400000BFBD465DF8047B704700BF10E000E091
:1043500080B500AFFFF72AFF00BF80BD80B500AF7A
:10436000FFF734FF00BF80BD80B485B000AF786038
:104370007B6803F00703FB600C4BDB68BB60BA682B
:104380004FF6FF031340BB60FB681A02BB68134380
:1043900043F0BF6343F40033BB60044ABB68D3609F
:1043A00000BF1437BD465DF8047B704700ED00E0A8
:1043B00080B400AF044BDB681B0A03F00703184608
:1043C000BD465DF8047B704700ED00E080B483B02B
:1043D00000AF0346FB7197F90730002B0BDBFB792D
:1043E00003F01F02074997F907305B09012000FA23
:1043F00002F241F8232000BF0C37BD465DF8047B74
:10440000704700BF00E100E080B483B000AF034616
:10441000FB7197F90730002B12DBFB7903F01F02C9
:104420000A4997F907305B09012000FA02F22033AC
:1044300041F82320BFF34F8F00BFBFF36F8F00BF42
:1044400000BF0C37BD465DF8047B704700E100E01B
:1044500080B483B000AF0346FB7197F90730002B9F
:104460000CDBFB7903F01F02074997F907305B0962
:10447000012000FA02F2403341F8232000BF0C373C
:10448000BD465DF8047B704700E100E080B483B076
:1044900000AF0346FB7197F90730002B0CDBFB796B
:1044A00003F01F02074997F907305B09012000FA62
:1044B00002F2603341F8232000BF0C37BD465DF89F
:1044C000047B704700E100E080B483B000AF034696
:1044D0003960FB7197F90730002B0ADB3B68DAB2D1
:1044E0000C4997F907301201D2B20B4483F800232C
:1044F0000AE03B68DAB20849FB7903F00F03043B9A
:104500001201D2B20B441A7600BF0C37BD465DF8DB
:10451000047B704700E100E000ED00E080B489B06A
:1045200000AFF860B9607A60FB6803F00703FB61D5
:10453000FB69C3F10703042B28BF0423BB61FB699C
:104540000433062B02D9FB69033B00E000237B61A7
:104550004FF0FF32BB6902FA03F3DA43BB681A403B
:104560007B699A404FF0FF317B6901FA03F3D9432D
:104570007B680B40134318462437BD465DF8047B27
:104580007047000080B582B000AF78607B68013B67
:10459000B3F1807F01D301230FE00A4A7B68013B1E
:1045A00053600F214FF0FF30FFF78EFF054B0022C5
:1045B0009A60044B07221A60002318460837BD464C
:1045C00080BD00BF10E000E080B582B000AF786031
:1045D0007868FFF7C9FE00BF0837BD4680BD80B5CB
:1045E00086B000AF0346B9607A60FB73FFF7E0FE68
:1045F00078617A68B9687869FFF790FF024697F9A1
:104600000F3011461846FFF75FFF00BF1837BD4651
:1046100080BD80B582B000AF0346FB7197F90730CB
:104620001846FFF7D3FE00BF0837BD4680BD80B5F2
:1046300082B000AF0346FB7197F907301846FFF7C9
:10464000E3FE00BF0837BD4680BD80B582B000AF35
:1046500078607868FFF796FF034618460837BD462E
:1046600080BD80B582B000AF0346FB7197F907307B
:104670001846FFF7EDFE00BF0837BD4680BD80B588
:1046800082B000AF0346FB7197F907301846FFF779
:10469000FDFE00BF0837BD4680BD80B483B000AFCB
:1046A00078607B68002B01D101234FE07B6893F891
:1046B0002530DBB2022B08D07B680422DA637B68EA
:1046C000002283F82420012340E07B681B681A68DD
:1046D0007B681B6822F00E021A607B689B6C1A686C
:1046E0007B689B6C22F480721A607B681B681A6876
:1046F0007B681B6822F001021A607B685B6C03F028
:104700001C027B681B6C012101FA02F25A607B6873
:10471000DB6C7A68126D5A607B685B6D002B0CD085
:104720007B685B6D1A687B685B6D22F480721A602F
:104730007B689B6D7A68D26D5A607B68012283F832
:1047400025207B68002283F82420002318460C379C
:10475000BD465DF8047B704780B584B000AF7860DB
:104760000023FB737B6893F82530DBB2022B05D066
:104770007B680422DA630123FB7347E07B681B68D4
:104780001A687B681B6822F00E021A607B681B683F
:104790001A687B681B6822F001021A607B689B6CB8
:1047A0001A687B689B6C22F480721A607B685B6C71
:1047B00003F01C027B681B6C012101FA02F25A60B3
:1047C0007B68DB6C7A68126D5A607B685B6D002BCE
:1047D0000CD07B685B6D1A687B685B6D22F480721D
:1047E0001A607B689B6D7A68D26D5A607B68012283
:1047F00083F825207B68002283F824207B689B6B4C
:10480000002B03D07B689B6B78689847FB7B18462E
:104810001037BD4680BD80B584B000AF78607B683E
:104820001B6C1B68FB607B681B681B68BB607B683C
:104830005B6C03F01C0304229A40FB681340002BBE
:1048400026D0BB6803F00403002B21D07B681B68D3
:104850001B6803F02003002B07D17B681B681A68D4
:104860007B681B6822F004021A607B685B6C03F0B3
:104870001C027B681B6C042101FA02F25A607B68FF
:104880001B6B002B71D07B681B6B786898476CE0C2
:104890007B685B6C03F01C0302229A40FB681340A8
:1048A000002B2ED0BB6803F00203002B29D07B68BD
:1048B0001B681B6803F02003002B0BD17B681B686F
:1048C0001A687B681B6822F00A021A607B68012262
:1048D00083F825207B685B6C03F01C027B681B6CF3
:1048E000022101FA02F25A607B68002283F8242038
:1048F0007B68DB6A002B38D07B68DB6A7868984776
:1049000033E07B685B6C03F01C0308229A40FB6871
:104910001340002B2AD0BB6803F00803002B25D0DE
:104920007B681B681A687B681B6822F00E021A609D
:104930007B685B6C03F01C027B681B6C012101FA35
:1049400002F25A607B680122DA637B68012283F8F5
:1049500025207B68002283F824207B685B6B002B7A
:1049600004D07B685B6B7868984700BF00BF103746
:10497000BD4680BD80B487B000AF78607B681B689F
:104980001B0C03F001037B617B681B6803F01F03B2
:10499000012202FA03F33B617B695B0103F1B0433F
:1049A00003F60803FB60FB683A691A6000BF1C3716
:1049B000BD465DF8047B704780B487B000AF786077
:1049C000396000237B614CE13B681A6801217B69F7
:1049D00001FA03F31340FB60FB68002B00F03E81FB
:1049E0003B685B6803F00303012B05D03B685B6801
:1049F00003F00303022B30D17B689B683B617B692A
:104A00005B00032202FA03F3DB433A6913403B6184
:104A10003B68DA687B695B0002FA03F33A69134387
:104A20003B617B683A699A607B685B683B61012205
:104A30007B6902FA03F3DB433A6913403B613B684D
:104A40005B681B0903F001027B6902FA03F33A6910
:104A500013433B617B683A695A603B685B6803F0CB
:104A60000303032B17D07B68DB683B617B695B002A
:104A7000032202FA03F3DB433A6913403B613B68CC
:104A80009A687B695B0002FA03F33A6913433B615E
:104A90007B683A69DA603B685B6803F00303022BCA
:104AA00023D17B69DA087B68083253F822303B61F6
:104AB0007B6903F007039B000F2202FA03F3DB4339
:104AC0003A6913403B613B681A697B6903F007034D
:104AD0009B0002FA03F33A6913433B617B69DA08EE
:104AE0007B680832396943F822107B681B683B6198
:104AF0007B695B00032202FA03F3DB433A6913404C
:104B00003B613B685B6803F003027B695B0002FA70
:104B100003F33A6913433B617B683A691A603B6867
:104B20005B6803F44033002B00F09880544A7B69A3
:104B30009B08023352F823303B617B6903F0030387
:104B40009B000F2202FA03F3DB433A6913403B61F7
:104B50007B68B3F1904F19D07B684A4A934213D0D7
:104B60007B68494A93420DD07B68484A934207D0FC
:104B70007B68474A934201D1042308E0072306E0FB
:104B8000032304E0022302E0012300E000237A690A
:104B900002F00302920093403A6913433B613849A3
:104BA0007B699B0802333A6941F82320394B1B6823
:104BB0003B61FB68DB433A6913403B613B685B68E0
:104BC00003F48013002B03D03A69FB6813433B6165
:104BD000304A3B6913602F4B5B683B61FB68DB43EA
:104BE0003A6913403B613B685B6803F40013002B98
:104BF00003D03A69FB6813433B61264A3B69536023
:104C0000244BD3F880303B61FB68DB433A691340A7
:104C10003B613B685B6803F48033002B03D03A6947
:104C2000FB6813433B611B4A3B69C2F88030194B58
:104C3000D3F884303B61FB68DB433A6913403B6146
:104C40003B685B6803F40033002B03D03A69FB68D0
:104C500013433B610F4A3B69C2F884307B690133DF
:104C60007B613B681A687B6922FA03F3002B7FF4AF
:104C7000ABAE00BF00BF1C37BD465DF8047B70477C
:104C8000000001400004004800080048000C0048F3
:104C9000001000480008005880B483B000AF78606E
:104CA0000B467B8013467B707B78002B03D07A8881
:104CB0007B689A6102E07A887B689A6200BF0C3751
:104CC000BD465DF8047B704780B582B000AF0346F7
:104CD000FB80084BDA68FB881340002B06D0054A9E
:104CE000FB88D360FB881846FCF7D8FB00BF083769
:104CF000BD4680BD0008005880B582B000AF0A4BA9
:104D0000DB687B60084B1A687B68DB43064913400D
:104D10000B60054A7B685360786800F007F800BFB5
:104D20000837BD4680BD00BF0015005880B483B071
:104D300000AF786000BF0C37BD465DF8047B70475C
:104D400080B584B000AF78600023FB737B68002BD4
:104D50001ED0134BBB607B6893F83830DBB2002B5E
:104D600002D17868FDF7F0FEB86800F05BF8BB6828
:104D70001B6843F00112BB681A60786800F02CF8D9
:104D80007B6800225A637B68012283F8382001E0A7
:104D90000123FB73FB7B18461037BD4680BD00BF67
:104DA000000C005880B485B000AFF860B9601346BD
:104DB000FB7100BF1437BD465DF8047B704780B4BB
:104DC00085B000AFF860B9601346FB7100BF1437BF
:104DD000BD465DF8047B704780B485B000AF786055
:104DE0000023FB600FE07A68FB689B0013440B4ACA
:104DF0005A607A68FB6806339B001344084A5A607D
:104E0000FB680133FB60FB68052BECD900BF00BFDA
:104E10001437BD465DF8047B704700BFA54D000800
:104E2000BF4D000880B483B000AF78607B6800227B
:104E30001A607B684FF03F125A607B683F229A608D
:104E400000BF0C37BD465DF8047B704780B400AFEF
:104E5000054B1B68044A43F48073136000BFBD46D2
:104E60005DF8047B704700BF0004005880B400AFB9
:104E7000044B1B6803F4C0631846BD465DF8047B11
:104E8000704700BF0004005880B400AF4FF0B0433B
:104E90001B6803F48013B3F5801F01D1012300E0E8
:104EA00000231846BD465DF8047B704780B400AF10
:104EB0004FF0B0431B684FF0B04243F480331360AF
:104EC00000BFBD465DF8047B704780B400AF4FF073
:104ED000B0431B684FF0B04223F48033136000BF2F
:104EE000BD465DF8047B704780B400AF4FF0B0431F
:104EF0001B6803F40033B3F5003F01D1012300E048
:104F000000231846BD465DF8047B704780B400AFAF
:104F10004FF0B0431B684FF0B04243F4807313600E
:104F200000BFBD465DF8047B704780B400AF4FF012
:104F3000B0431B684FF0B04223F48073136000BF8E
:104F4000BD465DF8047B704780B400AF4FF0B043BE
:104F50001B6803F48063B3F5806F01D1012300E087
:104F600000231846BD465DF8047B704780B483B0CB
:104F700000AF78604FF0B0435B6823F0FE427B687F
:104F80001B064FF0B04113434B6000BF0C37BD46CA
:104F90005DF8047B704780B400AF4FF0B043D3F8A6
:104FA00098304FF0B04243F00103C2F8983000BF90
:104FB000BD465DF8047B704780B400AF4FF0B0434E
:104FC000D3F898304FF0B04223F00103C2F8983084
:104FD00000BFBD465DF8047B704780B400AF4FF062
:104FE000B043D3F8983003F00203022B01D1012320
:104FF00000E000231846BD465DF8047B704780B48E
:1050000000AF4FF0B043D3F890304FF0B04243F0D0
:105010000103C2F8903000BFBD465DF8047B7047C5
:1050200080B400AF4FF0B043D3F890304FF0B042AF
:1050300023F00103C2F8903000BFBD465DF8047B49
:10504000704780B400AF4FF0B043D3F890304FF0CA
:10505000B04243F00403C2F8903000BFBD465DF893
:10506000047B704780B400AF4FF0B043D3F890306A
:105070004FF0B04223F00403C2F8903000BFBD46A9
:105080005DF8047B704780B400AF4FF0B043D3F8B5
:10509000903003F00203022B01D1012300E0002332
:1050A0001846BD465DF8047B704780B400AF4FF0F2
:1050B000B043D3F894304FF0B04243F00103C2F84C
:1050C000943000BFBD465DF8047B704780B400AFEC
:1050D0004FF0B043D3F894304FF0B04223F00103C7
:1050E000C2F8943000BFBD465DF8047B704780B4C1
:1050F00000AF4FF0B043D3F8943003F00203022B1B
:1051000001D1012300E000231846BD465DF8047B71
:10511000704780B400AF4FF0B043D3F894304FF0F5
:10512000B04243F00403C2F8943000BFBD465DF8BE
:10513000047B704780B400AF4FF0B043D3F8943095
:105140004FF0B04223F00403C2F8943000BFBD46D4
:105150005DF8047B704780B400AF4FF0B043D3F8E4
:10516000943003F00803082B01D1012300E0002351
:105170001846BD465DF8047B704780B483B000AF2D
:1051800078604FF0B043D3F8943023F470627B68BA
:105190001B024FF0B0411343C1F8943000BF0C37ED
:1051A000BD465DF8047B704780B400AF4FF0B0435C
:1051B0001B684FF0B04243F00103136000BFBD46CF
:1051C0005DF8047B704780B400AF4FF0B0431B68BC
:1051D0004FF0B04223F00103136000BFBD465DF8FD
:1051E000047B704780B400AF4FF0B0431B6803F0FE
:1051F0000203022B01D1012300E000231846BD4623
:105200005DF8047B704780B483B000AF78604FF0E6
:10521000B0431B6823F0F0024FF0B0417B681343AA
:105220000B6000BF0C37BD465DF8047B704780B44F
:1052300083B000AF4FF0B0431B6803F0F0037B6016
:105240007B68B02B01D9B0237B607B6818460C3794
:10525000BD465DF8047B704780B483B000AF7860D2
:105260004FF0B0435B6823F47F427B681B024FF032
:10527000B04113434B6000BF0C37BD465DF8047B63
:10528000704780B483B000AF78604FF0B0439B6844
:1052900023F003024FF0B0417B6813438B6000BFE3
:1052A0000C37BD465DF8047B704780B400AF4FF00B
:1052B000B0439B6803F00C031846BD465DF8047BC1
:1052C000704780B483B000AF78604FF0B0439B6804
:1052D00023F0F0024FF0B0417B6813438B6000BFB6
:1052E0000C37BD465DF8047B704780B483B000AFD7
:1052F00078604FF0B043D3F8083123F0F0024FF05C
:10530000B0417B681343C1F8083100BF0C37BD467C
:105310005DF8047B704780B483B000AF78604FF0D5
:10532000B043D3F8083123F00F027B681B094FF01C
:10533000B0411343C1F8083100BF0C37BD465DF8DA
:10534000047B704780B483B000AF78604FF0B04307
:105350009B6823F4E0624FF0B0417B6813438B609D
:1053600000BF0C37BD465DF8047B704780B483B046
:1053700000AF78604FF0B0439B6823F460524FF069
:10538000B0417B6813438B6000BF0C37BD465DF8AE
:10539000047B704780B400AF4FF0B0439B6803F0CC
:1053A000F0031846BD465DF8047B704780B400AF3B
:1053B0004FF0B043D3F808311B0103F0F003184657
:1053C000BD465DF8047B704780B400AF4FF0B0433A
:1053D0001B684FF0B04243F08073136000BFBD46BE
:1053E0005DF8047B704780B400AF4FF0B0431B689A
:1053F0004FF0B04223F08073136000BFBD465DF8EC
:10540000047B704780B400AF4FF0B0431B6803F0DB
:105410000073B3F1007F01D1012300E0002318469F
:10542000BD465DF8047B704780B400AF4FF0B043D9
:10543000DB681B0A03F07F031846BD465DF8047B5A
:10544000704780B400AF4FF0B043DB6803F06043B7
:105450001846BD465DF8047B704780B400AF4FF03E
:10546000B043DB6803F070031846BD465DF8047B6B
:10547000704780B400AF4FF0B043DB6803F0030324
:105480001846BD465DF8047B704780B400AF4FF00E
:10549000B0439B6803F48033B3F5803F01D101230F
:1054A00000E000231846BD465DF8047B704780B4D9
:1054B00000AF4FF0B043D3F8083103F40033B3F535
:1054C000003F01D1012300E000231846BD465DF8EE
:1054D000047B704780B400AF4FF0B043D3F808317D
:1054E00003F48033B3F5803F01D1012300E00023B2
:1054F0001846BD465DF8047B704780B400AF4FF09E
:10550000B0439B6803F40033B3F5003F01D101239E
:1055100000E000231846BD465DF8047B704780B468
:1055200000AF4FF0B0439B6803F48023B3F5802FA6
:1055300001D1012300E000231846BD465DF8047B3D
:105540007047000090B58DB000AF78607B68002B8D
:1055500001D1012363E37B681B6803F02003002B68
:1055600000F08D80FFF7A1FEF862FFF782FFB862BE
:10557000FB6A002B05D0FB6A0C2B47D1BB6A012BC1
:1055800044D17B68DB69002B01D1012347E37B68B1
:105590005C6AFFF74CFE03469C4214D97B685B6A49
:1055A000184600F003FD0346002B01D0012336E32B
:1055B0007B685B6A1846FFF726FE7B681B6A184605
:1055C000FFF74AFE13E07B685B6A1846FFF71BFE95
:1055D0007B681B6A1846FFF73FFE7B685B6A1846CC
:1055E00000F0E4FC0346002B01D0012317E300F098
:1055F000C9FC0346A44A1360A44B1B681846FEF777
:1056000015FE0346002B39D0012308E37B68DB69D4
:10561000002B1ED0FFF7C8FDFEF756FE786208E0AB
:10562000FEF752FE02467B6AD31A022B01D90323EE
:10563000F5E2FFF7D7FD0346002BF1D07B685B6AEC
:105640001846FFF7E0FD7B681B6A1846FFF704FE6B
:1056500015E0FFF7B8FDFEF737FE786208E0FEF7C9
:1056600033FE02467B6AD31A022B01D90323D6E20A
:10567000FFF7B8FD0346002BF1D100E000BF7B68C7
:105680001B6803F00103002B47D0FFF70EFE3862C2
:10569000FFF7EFFEF8613B6A082B05D03B6A0C2B45
:1056A00008D1FB69032B05D17B685B68002B34D1E3
:1056B0000123B4E27B685B68B3F5803F02D1FFF75A
:1056C000F5FB01E0FFF701FC7B685B68002B12D063
:1056D000FEF7FAFD786208E0FEF7F6FD02467B6A07
:1056E000D31A642B01D9032399E2FFF7FDFB03468C
:1056F000002BF1D011E0FEF7E7FD786208E0FEF73D
:10570000E3FD02467B6AD31A642B01D9032386E2A8
:10571000FFF7EAFB0346002BF1D17B681B6803F01F
:105720000203002B4CD0FFF7C0FDB861FFF7A1FECC
:105730007861BB69042B05D0BB690C2B0ED17B694A
:10574000022B0BD17B68DB68002B01D1012366E2C1
:105750007B681B691846FFF709FC31E07B68DB6852
:10576000002B19D0FFF7D2FBFEF7AEFD786208E000
:10577000FEF7AAFD02467B6AD31A022B01D9032346
:105780004DE2FFF7E1FB0346002BF1D07B681B697C
:105790001846FFF7EBFB13E0FFF7C7FBFEF794FD9E
:1057A000786208E0FEF790FD02467B6AD31A022B6E
:1057B00001D9032333E2FFF7C7FB0346002BF1D1E6
:1057C0007B681B6803F00803002B06D17B681B680D
:1057D00003F01003002B00F0A3807B685B69002BB3
:1057E00076D07B681B6803F01003002B46D0FFF7D0
:1057F0007EFC0346002B13D1FFF757FCFEF764FD38
:10580000786208E0FEF760FD02467B6AD31A022B3D
:1058100001D9032303E2FFF76AFC0346002BF1D012
:10582000FFF777FCFEF750FD786208E0FEF74CFDCD
:1058300002467B6AD31A032B01D90323EFE1FFF75A
:105840008AFC0346002BF1D07B689B691846FFF762
:1058500094FCFFF73BFCFEF737FD786208E0FEF7AB
:1058600033FD02467B6AD31A022B01D90323D6E10A
:10587000FFF73DFC0346002BF1D151E0FFF715FC8B
:10588000FEF722FD78620CE0380000203C0000208A
:10589000FEF71AFD02467B6AD31A022B01D90323B5
:1058A000BDE1FFF724FC0346002BF1D0FFF742FCDB
:1058B00008E0FEF709FD02467B6AD31A032B01D9E3
:1058C0000323ACE1FFF747FC0346002BF1D127E0AF
:1058D000FFF730FCFEF7F8FC786208E0FEF7F4FC16
:1058E00002467B6AD31A032B01D9032397E1FFF702
:1058F00032FC0346002BF1D1FFF7E8FBFEF7E4FC96
:10590000786208E0FEF7E0FC02467B6AD31A022BBD
:1059100001D9032383E1FFF7EAFB0346002BF1D112
:105920007B681B6803F00403002B5BD0A74B1B684C
:1059300003F48073002B14D1FFF788FAFEF7C4FC40
:10594000786208E0FEF7C0FC02467B6AD31A022B9D
:1059500001D9032363E19D4B1B6803F48073002B83
:10596000F0D07B689B68012B02D1FFF748FB0CE06D
:105970007B689B68052B04D1FFF763FBFFF73FFBB8
:1059800003E0FFF74DFBFFF76DFB7B689B68002B87
:1059900014D0FEF799FC78620AE0FEF795FC024607
:1059A0007B6AD31A41F28832934201D9032336E14C
:1059B000FFF769FB0346002BEFD013E0FEF784FCF2
:1059C00078620AE0FEF780FC02467B6AD31A41F255
:1059D0008832934201D9032321E1FFF754FB0346A8
:1059E000002BEFD17B681B6803F04003002B2CD009
:1059F0007B689B6A002B14D0FFF7CDFAFEF764FC9E
:105A0000786208E0FEF760FC02467B6AD31A022B3C
:105A100001D9032303E1FFF7E0FA0346002BF1D09D
:105A200013E0FFF7C9FAFEF74FFC786208E0FEF7D3
:105A30004BFC02467B6AD31A022B01D90323EEE00A
:105A4000FFF7CBFA0346002BF1D17B68DB6A002B12
:105A500000F0E480FFF729FC38614FF0B043DB68C9
:105A6000FB607B68DB6A022B40F0B480FB6803F0CC
:105A700003027B681B6B9A4223D1FB6803F0700220
:105A80007B685B6B9A421CD1FB681B0A03F07F02A8
:105A90007B689B6B9A4214D1FB6803F478127B6895
:105AA000DB6B9A420DD1FB6803F060627B681B6C74
:105AB0009A4206D1FB6803F060427B685B6C9A42B5
:105AC0005DD03B690C2B58D04FF0B0431B6803F0FE
:105AD0008063002B01D00123A1E0FFF784FCFEF7D7
